{"abi":[{"type":"constructor","inputs":[{"name":"verifierAddress","type":"address","internalType":"address"}],"stateMutability":"nonpayable"},{"type":"function","name":"addCheckpoint","inputs":[{"name":"productId","type":"string","internalType":"string"},{"name":"location","type":"string","internalType":"string"},{"name":"proofHash","type":"bytes32","internalType":"bytes32"},{"name":"timestamp","type":"uint256","internalType":"uint256"}],"outputs":[],"stateMutability":"nonpayable"},{"type":"function","name":"addWitness","inputs":[{"name":"productId","type":"string","internalType":"string"},{"name":"checkpointIndex","type":"uint256","internalType":"uint256"}],"outputs":[],"stateMutability":"nonpayable"},{"type":"function","name":"getCheckpoint","inputs":[{"name":"productId","type":"string","internalType":"string"},{"name":"checkpointIndex","type":"uint256","internalType":"uint256"}],"outputs":[{"name":"","type":"string","internalType":"string"},{"name":"","type":"uint256","internalType":"uint256"},{"name":"","type":"bytes32","internalType":"bytes32"},{"name":"","type":"address[]","internalType":"address[]"},{"name":"","type":"bool","internalType":"bool"}],"stateMutability":"view"},{"type":"function","name":"getCheckpointCount","inputs":[{"name":"productId","type":"string","internalType":"string"}],"outputs":[{"name":"","type":"uint256","internalType":"uint256"}],"stateMutability":"view"},{"type":"function","name":"getMetadataCID","inputs":[{"name":"productId","type":"string","internalType":"string"}],"outputs":[{"name":"","type":"string","internalType":"string"}],"stateMutability":"view"},{"type":"function","name":"products","inputs":[{"name":"","type":"string","internalType":"string"}],"outputs":[{"name":"cid","type":"string","internalType":"string"},{"name":"isRegistered","type":"bool","internalType":"bool"}],"stateMutability":"view"},{"type":"function","name":"registerProduct","inputs":[{"name":"productId","type":"string","internalType":"string"},{"name":"initialCid","type":"string","internalType":"string"}],"outputs":[],"stateMutability":"nonpayable"},{"type":"function","name":"updateMetadataCID","inputs":[{"name":"productId","type":"string","internalType":"string"},{"name":"newCid","type":"string","internalType":"string"}],"outputs":[],"stateMutability":"nonpayable"},{"type":"function","name":"verifier","inputs":[],"outputs":[{"name":"","type":"address","internalType":"contract IZKVerifier"}],"stateMutability":"view"},{"type":"function","name":"verifyCheckpoint","inputs":[{"name":"productId","type":"string","internalType":"string"},{"name":"checkpointIndex","type":"uint256","internalType":"uint256"},{"name":"a","type":"uint256[2]","internalType":"uint256[2]"},{"name":"b","type":"uint256[2][2]","internalType":"uint256[2][2]"},{"name":"c","type":"uint256[2]","internalType":"uint256[2]"},{"name":"input","type":"uint256[]","internalType":"uint256[]"}],"outputs":[],"stateMutability":"nonpayable"},{"type":"event","name":"CheckpointAdded","inputs":[{"name":"productId","type":"string","indexed":true,"internalType":"string"},{"name":"index","type":"uint256","indexed":false,"internalType":"uint256"}],"anonymous":false},{"type":"event","name":"CheckpointVerified","inputs":[{"name":"productId","type":"string","indexed":true,"internalType":"string"},{"name":"checkpointIndex","type":"uint256","indexed":false,"internalType":"uint256"}],"anonymous":false},{"type":"event","name":"ProductRegistered","inputs":[{"name":"productId","type":"string","indexed":true,"internalType":"string"},{"name":"cid","type":"string","indexed":false,"internalType":"string"}],"anonymous":false},{"type":"event","name":"WitnessAdded","inputs":[{"name":"productId","type":"string","indexed":true,"internalType":"string"},{"name":"checkpointIndex","type":"uint256","indexed":false,"internalType":"uint256"},{"name":"witness","type":"address","indexed":false,"internalType":"address"}],"anonymous":false}],"bytecode":{"object":"0x608060405234801561000f575f5ffd5b50604051612231380380612231833981810160405281019061003191906100d5565b8060015f6101000a81548173ffffffffffffffffffffffffffffffffffffffff021916908373ffffffffffffffffffffffffffffffffffffffff16021790555050610100565b5f5ffd5b5f73ffffffffffffffffffffffffffffffffffffffff82169050919050565b5f6100a48261007b565b9050919050565b6100b48161009a565b81146100be575f5ffd5b50565b5f815190506100cf816100ab565b92915050565b5f602082840312156100ea576100e9610077565b5b5f6100f7848285016100c1565b91505092915050565b6121248061010d5f395ff3fe608060405234801561000f575f5ffd5b506004361061009c575f3560e01c80636926475c116100645780636926475c146101575780638fbd0dcf14610173578063b8b643f41461018f578063cc3b6fbb146101c3578063dd1fc103146101f35761009c565b80630148a54b146100a05780630186a423146100bc57806306b15c83146100ed5780632b7ac3f31461011d5780635a06cdd81461013b575b5f5ffd5b6100ba60048036038101906100b59190611025565b61020f565b005b6100d660048036038101906100d1919061109b565b6102ac565b6040516100e492919061115c565b60405180910390f35b6101076004803603810190610102919061109b565b610375565b60405161011491906111a2565b60405180910390f35b6101256103a1565b6040516101329190611235565b60405180910390f35b610155600480360381019061015091906112ab565b6103c6565b005b610171600480360381019061016c9190611347565b6105d6565b005b61018d60048036038101906101889190611025565b610799565b005b6101a960048036038101906101a49190611347565b6108bc565b6040516101ba959493929190611478565b60405180910390f35b6101dd60048036038101906101d8919061109b565b610a84565b6040516101ea91906114d7565b60405180910390f35b61020d60048036038101906102089190611717565b610b33565b005b5f8260405161021e9190611815565b90815260200160405180910390206002015f9054906101000a900460ff1661027b576040517f08c379a000000000000000000000000000000000000000000000000000000000815260040161027290611875565b60405180910390fd5b805f8360405161028b9190611815565b90815260200160405180910390205f0190816102a79190611a87565b505050565b5f818051602081018201805184825260208301602085012081835280955050505050505f91509050805f0180546102e2906118c0565b80601f016020809104026020016040519081016040528092919081815260200182805461030e906118c0565b80156103595780601f1061033057610100808354040283529160200191610359565b820191905f5260205f20905b81548152906001019060200180831161033c57829003601f168201915b505050505090806002015f9054906101000a900460ff16905082565b5f5f826040516103859190611815565b9081526020016040518091039020600101805490509050919050565b60015f9054906101000a900473ffffffffffffffffffffffffffffffffffffffff1681565b5f846040516103d59190611815565b90815260200160405180910390206002015f9054906101000a900460ff16610432576040517f08c379a000000000000000000000000000000000000000000000000000000000815260040161042990611875565b60405180910390fd5b5f6040518060a001604052808581526020018381526020018481526020015f67ffffffffffffffff81111561046a57610469610f01565b5b6040519080825280602002602001820160405280156104985781602001602082028036833780820191505090505b5081526020015f151581525090505f856040516104b59190611815565b908152602001604051809103902060010181908060018154018082558091505060019003905f5260205f2090600502015f909190919091505f820151815f0190816105009190611a87565b5060208201518160010155604082015181600201556060820151816003019080519060200190610531929190610e36565b506080820151816004015f6101000a81548160ff0219169083151502179055505050846040516105619190611815565b60405180910390207fb3a5a4efeaed23970cbfc7bc6151a604beffa3c2b55e0f895ff671418ee40f0260015f8860405161059b9190611815565b9081526020016040518091039020600101805490506105ba9190611b83565b6040516105c791906111a2565b60405180910390a25050505050565b5f826040516105e59190611815565b90815260200160405180910390206002015f9054906101000a900460ff16610642576040517f08c379a000000000000000000000000000000000000000000000000000000000815260040161063990611875565b60405180910390fd5b5f826040516106519190611815565b90815260200160405180910390206001018054905081106106a7576040517f08c379a000000000000000000000000000000000000000000000000000000000815260040161069e90611c00565b60405180910390fd5b5f826040516106b69190611815565b908152602001604051809103902060010181815481106106d9576106d8611c1e565b5b905f5260205f20906005020160030133908060018154018082558091505060019003905f5260205f20015f9091909190916101000a81548173ffffffffffffffffffffffffffffffffffffffff021916908373ffffffffffffffffffffffffffffffffffffffff160217905550816040516107549190611815565b60405180910390207f03bd0ee92b5fb920b1b82b2f27dcaba6f7c86019e470e34abdf3837f768f59db823360405161078d929190611c5a565b60405180910390a25050565b5f826040516107a89190611815565b90815260200160405180910390206002015f9054906101000a900460ff1615610806576040517f08c379a00000000000000000000000000000000000000000000000000000000081526004016107fd90611ccb565b60405180910390fd5b805f836040516108169190611815565b90815260200160405180910390205f0190816108329190611a87565b5060015f836040516108449190611815565b90815260200160405180910390206002015f6101000a81548160ff021916908315150217905550816040516108799190611815565b60405180910390207f05c683c8ef124ed98b107dcf80c644abc011626816b5b3a73e3f6d518c0cd778826040516108b091906114d7565b60405180910390a25050565b60605f5f60605f5f5f886040516108d39190611815565b908152602001604051809103902060010187815481106108f6576108f5611c1e565b5b905f5260205f2090600502016040518060a00160405290815f8201805461091c906118c0565b80601f0160208091040260200160405190810160405280929190818152602001828054610948906118c0565b80156109935780601f1061096a57610100808354040283529160200191610993565b820191905f5260205f20905b81548152906001019060200180831161097657829003601f168201915b50505050508152602001600182015481526020016002820154815260200160038201805480602002602001604051908101604052809291908181526020018280548015610a3257602002820191905f5260205f20905b815f9054906101000a900473ffffffffffffffffffffffffffffffffffffffff1673ffffffffffffffffffffffffffffffffffffffff16815260200190600101908083116109e9575b50505050508152602001600482015f9054906101000a900460ff1615151515815250509050805f0151816020015182604001518360600151846080015195509550955095509550509295509295909350565b60605f82604051610a959190611815565b90815260200160405180910390205f018054610ab0906118c0565b80601f0160208091040260200160405190810160405280929190818152602001828054610adc906118c0565b8015610b275780601f10610afe57610100808354040283529160200191610b27565b820191905f5260205f20905b815481529060010190602001808311610b0a57829003601f168201915b50505050509050919050565b5f86604051610b429190611815565b90815260200160405180910390206002015f9054906101000a900460ff16610b9f576040517f08c379a0000000000000000000000000000000000000000000000000000000008152600401610b9690611875565b60405180910390fd5b5f86604051610bae9190611815565b9081526020016040518091039020600101805490508510610c04576040517f08c379a0000000000000000000000000000000000000000000000000000000008152600401610bfb90611c00565b60405180910390fd5b5f5f87604051610c149190611815565b90815260200160405180910390206001018681548110610c3757610c36611c1e565b5b905f5260205f2090600502019050600381600301805490501015610c90576040517f08c379a0000000000000000000000000000000000000000000000000000000008152600401610c8790611d33565b60405180910390fd5b806004015f9054906101000a900460ff1615610ce1576040517f08c379a0000000000000000000000000000000000000000000000000000000008152600401610cd890611d9b565b60405180910390fd5b5f60015f9054906101000a900473ffffffffffffffffffffffffffffffffffffffff1673ffffffffffffffffffffffffffffffffffffffff166378b1ba57878787876040518563ffffffff1660e01b8152600401610d429493929190611fe5565b602060405180830381865afa158015610d5d573d5f5f3e3d5ffd5b505050506040513d601f19601f82011682018060405250810190610d81919061205b565b905080610dc3576040517f08c379a0000000000000000000000000000000000000000000000000000000008152600401610dba906120d0565b60405180910390fd5b6001826004015f6101000a81548160ff02191690831515021790555087604051610ded9190611815565b60405180910390207fb57af8087adaf63fd7418180eac1fadbc6d77f50d0fd5861ee25bb290667a9c888604051610e2491906111a2565b60405180910390a25050505050505050565b828054828255905f5260205f20908101928215610eac579160200282015b82811115610eab578251825f6101000a81548173ffffffffffffffffffffffffffffffffffffffff021916908373ffffffffffffffffffffffffffffffffffffffff16021790555091602001919060010190610e54565b5b509050610eb99190610ebd565b5090565b5b80821115610ed4575f815f905550600101610ebe565b5090565b5f604051905090565b5f5ffd5b5f5ffd5b5f5ffd5b5f5ffd5b5f601f19601f8301169050919050565b7f4e487b71000000000000000000000000000000000000000000000000000000005f52604160045260245ffd5b610f3782610ef1565b810181811067ffffffffffffffff82111715610f5657610f55610f01565b5b80604052505050565b5f610f68610ed8565b9050610f748282610f2e565b919050565b5f67ffffffffffffffff821115610f9357610f92610f01565b5b610f9c82610ef1565b9050602081019050919050565b828183375f83830152505050565b5f610fc9610fc484610f79565b610f5f565b905082815260208101848484011115610fe557610fe4610eed565b5b610ff0848285610fa9565b509392505050565b5f82601f83011261100c5761100b610ee9565b5b813561101c848260208601610fb7565b91505092915050565b5f5f6040838503121561103b5761103a610ee1565b5b5f83013567ffffffffffffffff81111561105857611057610ee5565b5b61106485828601610ff8565b925050602083013567ffffffffffffffff81111561108557611084610ee5565b5b61109185828601610ff8565b9150509250929050565b5f602082840312156110b0576110af610ee1565b5b5f82013567ffffffffffffffff8111156110cd576110cc610ee5565b5b6110d984828501610ff8565b91505092915050565b5f81519050919050565b5f82825260208201905092915050565b8281835e5f83830152505050565b5f611114826110e2565b61111e81856110ec565b935061112e8185602086016110fc565b61113781610ef1565b840191505092915050565b5f8115159050919050565b61115681611142565b82525050565b5f6040820190508181035f830152611174818561110a565b9050611183602083018461114d565b9392505050565b5f819050919050565b61119c8161118a565b82525050565b5f6020820190506111b55f830184611193565b92915050565b5f73ffffffffffffffffffffffffffffffffffffffff82169050919050565b5f819050919050565b5f6111fd6111f86111f3846111bb565b6111da565b6111bb565b9050919050565b5f61120e826111e3565b9050919050565b5f61121f82611204565b9050919050565b61122f81611215565b82525050565b5f6020820190506112485f830184611226565b92915050565b5f819050919050565b6112608161124e565b811461126a575f5ffd5b50565b5f8135905061127b81611257565b92915050565b61128a8161118a565b8114611294575f5ffd5b50565b5f813590506112a581611281565b92915050565b5f5f5f5f608085870312156112c3576112c2610ee1565b5b5f85013567ffffffffffffffff8111156112e0576112df610ee5565b5b6112ec87828801610ff8565b945050602085013567ffffffffffffffff81111561130d5761130c610ee5565b5b61131987828801610ff8565b935050604061132a8782880161126d565b925050606061133b87828801611297565b91505092959194509250565b5f5f6040838503121561135d5761135c610ee1565b5b5f83013567ffffffffffffffff81111561137a57611379610ee5565b5b61138685828601610ff8565b925050602061139785828601611297565b9150509250929050565b6113aa8161124e565b82525050565b5f81519050919050565b5f82825260208201905092915050565b5f819050602082019050919050565b5f6113e3826111bb565b9050919050565b6113f3816113d9565b82525050565b5f61140483836113ea565b60208301905092915050565b5f602082019050919050565b5f611426826113b0565b61143081856113ba565b935061143b836113ca565b805f5b8381101561146b57815161145288826113f9565b975061145d83611410565b92505060018101905061143e565b5085935050505092915050565b5f60a0820190508181035f830152611490818861110a565b905061149f6020830187611193565b6114ac60408301866113a1565b81810360608301526114be818561141c565b90506114cd608083018461114d565b9695505050505050565b5f6020820190508181035f8301526114ef818461110a565b905092915050565b5f67ffffffffffffffff82111561151157611510610f01565b5b602082029050919050565b5f5ffd5b5f61153261152d846114f7565b610f5f565b9050806020840283018581111561154c5761154b61151c565b5b835b8181101561157557806115618882611297565b84526020840193505060208101905061154e565b5050509392505050565b5f82601f83011261159357611592610ee9565b5b60026115a0848285611520565b91505092915050565b5f67ffffffffffffffff8211156115c3576115c2610f01565b5b602082029050919050565b5f6115e06115db846115a9565b610f5f565b905080604084028301858111156115fa576115f961151c565b5b835b81811015611623578061160f888261157f565b8452602084019350506040810190506115fc565b5050509392505050565b5f82601f83011261164157611640610ee9565b5b600261164e8482856115ce565b91505092915050565b5f67ffffffffffffffff82111561167157611670610f01565b5b602082029050602081019050919050565b5f61169461168f84611657565b610f5f565b905080838252602082019050602084028301858111156116b7576116b661151c565b5b835b818110156116e057806116cc8882611297565b8452602084019350506020810190506116b9565b5050509392505050565b5f82601f8301126116fe576116fd610ee9565b5b813561170e848260208601611682565b91505092915050565b5f5f5f5f5f5f610160878903121561173257611731610ee1565b5b5f87013567ffffffffffffffff81111561174f5761174e610ee5565b5b61175b89828a01610ff8565b965050602061176c89828a01611297565b955050604061177d89828a0161157f565b945050608061178e89828a0161162d565b9350506101006117a089828a0161157f565b92505061014087013567ffffffffffffffff8111156117c2576117c1610ee5565b5b6117ce89828a016116ea565b9150509295509295509295565b5f81905092915050565b5f6117ef826110e2565b6117f981856117db565b93506118098185602086016110fc565b80840191505092915050565b5f61182082846117e5565b915081905092915050565b7f50726f64756374206e6f7420666f756e640000000000000000000000000000005f82015250565b5f61185f6011836110ec565b915061186a8261182b565b602082019050919050565b5f6020820190508181035f83015261188c81611853565b9050919050565b7f4e487b71000000000000000000000000000000000000000000000000000000005f52602260045260245ffd5b5f60028204905060018216806118d757607f821691505b6020821081036118ea576118e9611893565b5b50919050565b5f819050815f5260205f209050919050565b5f6020601f8301049050919050565b5f82821b905092915050565b5f6008830261194c7fffffffffffffffffffffffffffffffffffffffffffffffffffffffffffffffff82611911565b6119568683611911565b95508019841693508086168417925050509392505050565b5f61198861198361197e8461118a565b6111da565b61118a565b9050919050565b5f819050919050565b6119a18361196e565b6119b56119ad8261198f565b84845461191d565b825550505050565b5f5f905090565b6119cc6119bd565b6119d7818484611998565b505050565b5b818110156119fa576119ef5f826119c4565b6001810190506119dd565b5050565b601f821115611a3f57611a10816118f0565b611a1984611902565b81016020851015611a28578190505b611a3c611a3485611902565b8301826119dc565b50505b505050565b5f82821c905092915050565b5f611a5f5f1984600802611a44565b1980831691505092915050565b5f611a778383611a50565b9150826002028217905092915050565b611a90826110e2565b67ffffffffffffffff811115611aa957611aa8610f01565b5b611ab382546118c0565b611abe8282856119fe565b5f60209050601f831160018114611aef575f8415611add578287015190505b611ae78582611a6c565b865550611b4e565b601f198416611afd866118f0565b5f5b82811015611b2457848901518255600182019150602085019450602081019050611aff565b86831015611b415784890151611b3d601f891682611a50565b8355505b6001600288020188555050505b505050505050565b7f4e487b71000000000000000000000000000000000000000000000000000000005f52601160045260245ffd5b5f611b8d8261118a565b9150611b988361118a565b9250828203905081811115611bb057611baf611b56565b5b92915050565b7f496e76616c696420636865636b706f696e7400000000000000000000000000005f82015250565b5f611bea6012836110ec565b9150611bf582611bb6565b602082019050919050565b5f6020820190508181035f830152611c1781611bde565b9050919050565b7f4e487b71000000000000000000000000000000000000000000000000000000005f52603260045260245ffd5b611c54816113d9565b82525050565b5f604082019050611c6d5f830185611193565b611c7a6020830184611c4b565b9392505050565b7f50726f6475637420616c726561647920657869737473000000000000000000005f82015250565b5f611cb56016836110ec565b9150611cc082611c81565b602082019050919050565b5f6020820190508181035f830152611ce281611ca9565b9050919050565b7f4e6f7420656e6f756768207769746e65737365730000000000000000000000005f82015250565b5f611d1d6014836110ec565b9150611d2882611ce9565b602082019050919050565b5f6020820190508181035f830152611d4a81611d11565b9050919050565b7f416c7265616479207665726966696564000000000000000000000000000000005f82015250565b5f611d856010836110ec565b9150611d9082611d51565b602082019050919050565b5f6020820190508181035f830152611db281611d79565b9050919050565b5f60029050919050565b5f81905092915050565b5f819050919050565b611ddf8161118a565b82525050565b5f611df08383611dd6565b60208301905092915050565b5f602082019050919050565b611e1181611db9565b611e1b8184611dc3565b9250611e2682611dcd565b805f5b83811015611e56578151611e3d8782611de5565b9650611e4883611dfc565b925050600181019050611e29565b505050505050565b5f60029050919050565b5f81905092915050565b5f819050919050565b5f81905092915050565b611e8e81611db9565b611e988184611e7b565b9250611ea382611dcd565b805f5b83811015611ed3578151611eba8782611de5565b9650611ec583611dfc565b925050600181019050611ea6565b505050505050565b5f611ee68383611e85565b60408301905092915050565b5f602082019050919050565b611f0781611e5e565b611f118184611e68565b9250611f1c82611e72565b805f5b83811015611f4c578151611f338782611edb565b9650611f3e83611ef2565b925050600181019050611f1f565b505050505050565b5f81519050919050565b5f82825260208201905092915050565b5f819050602082019050919050565b5f602082019050919050565b5f611f9382611f54565b611f9d8185611f5e565b9350611fa883611f6e565b805f5b83811015611fd8578151611fbf8882611de5565b9750611fca83611f7d565b925050600181019050611fab565b5085935050505092915050565b5f61012082019050611ff95f830187611e08565b6120066040830186611efe565b61201360c0830185611e08565b8181036101008301526120268184611f89565b905095945050505050565b61203a81611142565b8114612044575f5ffd5b50565b5f8151905061205581612031565b92915050565b5f602082840312156120705761206f610ee1565b5b5f61207d84828501612047565b91505092915050565b7f496e76616c6964205a4b2070726f6f66000000000000000000000000000000005f82015250565b5f6120ba6010836110ec565b91506120c582612086565b602082019050919050565b5f6020820190508181035f8301526120e7816120ae565b905091905056fea2646970667358221220e10f99b527612e120593cc7bd523ab3882ef8054b992635869011978733a89e964736f6c634300081c0033","linkReferences":{}},"methodIdentifiers":{"addCheckpoint(string,string,bytes32,uint256)":"5a06cdd8","addWitness(string,uint256)":"6926475c","getCheckpoint(string,uint256)":"b8b643f4","getCheckpointCount(string)":"06b15c83","getMetadataCID(string)":"cc3b6fbb","products(string)":"0186a423","registerProduct(string,string)":"8fbd0dcf","updateMetadataCID(string,string)":"0148a54b","verifier()":"2b7ac3f3","verifyCheckpoint(string,uint256,uint256[2],uint256[2][2],uint256[2],uint256[])":"dd1fc103"},"id":21}