{"abi":[{"type":"constructor","inputs":[{"name":"verifierAddress","type":"address","internalType":"address"}],"stateMutability":"nonpayable"},{"type":"function","name":"addCheckpoint","inputs":[{"name":"productId","type":"string","internalType":"string"},{"name":"location","type":"string","internalType":"string"},{"name":"proofHash","type":"bytes32","internalType":"bytes32"},{"name":"timestamp","type":"uint256","internalType":"uint256"}],"outputs":[],"stateMutability":"nonpayable"},{"type":"function","name":"addWitness","inputs":[{"name":"productId","type":"string","internalType":"string"},{"name":"checkpointIndex","type":"uint256","internalType":"uint256"}],"outputs":[],"stateMutability":"nonpayable"},{"type":"function","name":"getCheckpoint","inputs":[{"name":"productId","type":"string","internalType":"string"},{"name":"checkpointIndex","type":"uint256","internalType":"uint256"}],"outputs":[{"name":"","type":"string","internalType":"string"},{"name":"","type":"uint256","internalType":"uint256"},{"name":"","type":"bytes32","internalType":"bytes32"},{"name":"","type":"address[]","internalType":"address[]"},{"name":"","type":"bool","internalType":"bool"}],"stateMutability":"view"},{"type":"function","name":"getCheckpointCount","inputs":[{"name":"productId","type":"string","internalType":"string"}],"outputs":[{"name":"","type":"uint256","internalType":"uint256"}],"stateMutability":"view"},{"type":"function","name":"getMetadataCID","inputs":[{"name":"productId","type":"string","internalType":"string"}],"outputs":[{"name":"","type":"string","internalType":"string"}],"stateMutability":"view"},{"type":"function","name":"products","inputs":[{"name":"","type":"string","internalType":"string"}],"outputs":[{"name":"cid","type":"string","internalType":"string"},{"name":"isRegistered","type":"bool","internalType":"bool"}],"stateMutability":"view"},{"type":"function","name":"registerProduct","inputs":[{"name":"productId","type":"string","internalType":"string"},{"name":"initialCid","type":"string","internalType":"string"}],"outputs":[],"stateMutability":"nonpayable"},{"type":"function","name":"updateMetadataCID","inputs":[{"name":"productId","type":"string","internalType":"string"},{"name":"newCid","type":"string","internalType":"string"}],"outputs":[],"stateMutability":"nonpayable"},{"type":"function","name":"verifier","inputs":[],"outputs":[{"name":"","type":"address","internalType":"contract IZKVerifier"}],"stateMutability":"view"},{"type":"function","name":"verifyCheckpoint","inputs":[{"name":"productId","type":"string","internalType":"string"},{"name":"checkpointIndex","type":"uint256","internalType":"uint256"},{"name":"a","type":"uint256[2]","internalType":"uint256[2]"},{"name":"b","type":"uint256[2][2]","internalType":"uint256[2][2]"},{"name":"c","type":"uint256[2]","internalType":"uint256[2]"},{"name":"input","type":"uint256[]","internalType":"uint256[]"}],"outputs":[],"stateMutability":"nonpayable"},{"type":"event","name":"CheckpointAdded","inputs":[{"name":"productId","type":"string","indexed":true,"internalType":"string"},{"name":"index","type":"uint256","indexed":false,"internalType":"uint256"}],"anonymous":false},{"type":"event","name":"CheckpointVerified","inputs":[{"name":"productId","type":"string","indexed":true,"internalType":"string"},{"name":"checkpointIndex","type":"uint256","indexed":false,"internalType":"uint256"}],"anonymous":false},{"type":"event","name":"ProductRegistered","inputs":[{"name":"productId","type":"string","indexed":true,"internalType":"string"},{"name":"cid","type":"string","indexed":false,"internalType":"string"}],"anonymous":false},{"type":"event","name":"WitnessAdded","inputs":[{"name":"productId","type":"string","indexed":true,"internalType":"string"},{"name":"checkpointIndex","type":"uint256","indexed":false,"internalType":"uint256"},{"name":"witness","type":"address","indexed":false,"internalType":"address"}],"anonymous":false}],"bytecode":{"object":"0x608060405234801562000010575f80fd5b506040516200225b3803806200225b8339818101604052810190620000369190620000e2565b8060015f6101000a81548173ffffffffffffffffffffffffffffffffffffffff021916908373ffffffffffffffffffffffffffffffffffffffff1602179055505062000112565b5f80fd5b5f73ffffffffffffffffffffffffffffffffffffffff82169050919050565b5f620000ac8262000081565b9050919050565b620000be81620000a0565b8114620000c9575f80fd5b50565b5f81519050620000dc81620000b3565b92915050565b5f60208284031215620000fa57620000f96200007d565b5b5f6200010984828501620000cc565b91505092915050565b61213b80620001205f395ff3fe608060405234801561000f575f80fd5b506004361061009c575f3560e01c80636926475c116100645780636926475c146101575780638fbd0dcf14610173578063b8b643f41461018f578063cc3b6fbb146101c3578063dd1fc103146101f35761009c565b80630148a54b146100a05780630186a423146100bc57806306b15c83146100ed5780632b7ac3f31461011d5780635a06cdd81461013b575b5f80fd5b6100ba60048036038101906100b59190611025565b61020f565b005b6100d660048036038101906100d1919061109b565b6102ac565b6040516100e4929190611176565b60405180910390f35b6101076004803603810190610102919061109b565b610375565b60405161011491906111bc565b60405180910390f35b6101256103a1565b604051610132919061124f565b60405180910390f35b610155600480360381019061015091906112c5565b6103c6565b005b610171600480360381019061016c9190611361565b6105d6565b005b61018d60048036038101906101889190611025565b610799565b005b6101a960048036038101906101a49190611361565b6108bc565b6040516101ba959493929190611492565b60405180910390f35b6101dd60048036038101906101d8919061109b565b610a84565b6040516101ea91906114f1565b60405180910390f35b61020d60048036038101906102089190611731565b610b33565b005b5f8260405161021e919061182f565b90815260200160405180910390206002015f9054906101000a900460ff1661027b576040517f08c379a00000000000000000000000000000000000000000000000000000000081526004016102729061188f565b60405180910390fd5b805f8360405161028b919061182f565b90815260200160405180910390205f0190816102a79190611a9e565b505050565b5f818051602081018201805184825260208301602085012081835280955050505050505f91509050805f0180546102e2906118da565b80601f016020809104026020016040519081016040528092919081815260200182805461030e906118da565b80156103595780601f1061033057610100808354040283529160200191610359565b820191905f5260205f20905b81548152906001019060200180831161033c57829003601f168201915b505050505090806002015f9054906101000a900460ff16905082565b5f8082604051610385919061182f565b9081526020016040518091039020600101805490509050919050565b60015f9054906101000a900473ffffffffffffffffffffffffffffffffffffffff1681565b5f846040516103d5919061182f565b90815260200160405180910390206002015f9054906101000a900460ff16610432576040517f08c379a00000000000000000000000000000000000000000000000000000000081526004016104299061188f565b60405180910390fd5b5f6040518060a001604052808581526020018381526020018481526020015f67ffffffffffffffff81111561046a57610469610f01565b5b6040519080825280602002602001820160405280156104985781602001602082028036833780820191505090505b5081526020015f151581525090505f856040516104b5919061182f565b908152602001604051809103902060010181908060018154018082558091505060019003905f5260205f2090600502015f909190919091505f820151815f0190816105009190611a9e565b5060208201518160010155604082015181600201556060820151816003019080519060200190610531929190610e36565b506080820151816004015f6101000a81548160ff021916908315150217905550505084604051610561919061182f565b60405180910390207fb3a5a4efeaed23970cbfc7bc6151a604beffa3c2b55e0f895ff671418ee40f0260015f8860405161059b919061182f565b9081526020016040518091039020600101805490506105ba9190611b9a565b6040516105c791906111bc565b60405180910390a25050505050565b5f826040516105e5919061182f565b90815260200160405180910390206002015f9054906101000a900460ff16610642576040517f08c379a00000000000000000000000000000000000000000000000000000000081526004016106399061188f565b60405180910390fd5b5f82604051610651919061182f565b90815260200160405180910390206001018054905081106106a7576040517f08c379a000000000000000000000000000000000000000000000000000000000815260040161069e90611c17565b60405180910390fd5b5f826040516106b6919061182f565b908152602001604051809103902060010181815481106106d9576106d8611c35565b5b905f5260205f20906005020160030133908060018154018082558091505060019003905f5260205f20015f9091909190916101000a81548173ffffffffffffffffffffffffffffffffffffffff021916908373ffffffffffffffffffffffffffffffffffffffff16021790555081604051610754919061182f565b60405180910390207f03bd0ee92b5fb920b1b82b2f27dcaba6f7c86019e470e34abdf3837f768f59db823360405161078d929190611c71565b60405180910390a25050565b5f826040516107a8919061182f565b90815260200160405180910390206002015f9054906101000a900460ff1615610806576040517f08c379a00000000000000000000000000000000000000000000000000000000081526004016107fd90611ce2565b60405180910390fd5b805f83604051610816919061182f565b90815260200160405180910390205f0190816108329190611a9e565b5060015f83604051610844919061182f565b90815260200160405180910390206002015f6101000a81548160ff02191690831515021790555081604051610879919061182f565b60405180910390207f05c683c8ef124ed98b107dcf80c644abc011626816b5b3a73e3f6d518c0cd778826040516108b091906114f1565b60405180910390a25050565b60605f8060605f805f886040516108d3919061182f565b908152602001604051809103902060010187815481106108f6576108f5611c35565b5b905f5260205f2090600502016040518060a00160405290815f8201805461091c906118da565b80601f0160208091040260200160405190810160405280929190818152602001828054610948906118da565b80156109935780601f1061096a57610100808354040283529160200191610993565b820191905f5260205f20905b81548152906001019060200180831161097657829003601f168201915b50505050508152602001600182015481526020016002820154815260200160038201805480602002602001604051908101604052809291908181526020018280548015610a3257602002820191905f5260205f20905b815f9054906101000a900473ffffffffffffffffffffffffffffffffffffffff1673ffffffffffffffffffffffffffffffffffffffff16815260200190600101908083116109e9575b50505050508152602001600482015f9054906101000a900460ff1615151515815250509050805f0151816020015182604001518360600151846080015195509550955095509550509295509295909350565b60605f82604051610a95919061182f565b90815260200160405180910390205f018054610ab0906118da565b80601f0160208091040260200160405190810160405280929190818152602001828054610adc906118da565b8015610b275780601f10610afe57610100808354040283529160200191610b27565b820191905f5260205f20905b815481529060010190602001808311610b0a57829003601f168201915b50505050509050919050565b5f86604051610b42919061182f565b90815260200160405180910390206002015f9054906101000a900460ff16610b9f576040517f08c379a0000000000000000000000000000000000000000000000000000000008152600401610b969061188f565b60405180910390fd5b5f86604051610bae919061182f565b9081526020016040518091039020600101805490508510610c04576040517f08c379a0000000000000000000000000000000000000000000000000000000008152600401610bfb90611c17565b60405180910390fd5b5f8087604051610c14919061182f565b90815260200160405180910390206001018681548110610c3757610c36611c35565b5b905f5260205f2090600502019050600381600301805490501015610c90576040517f08c379a0000000000000000000000000000000000000000000000000000000008152600401610c8790611d4a565b60405180910390fd5b806004015f9054906101000a900460ff1615610ce1576040517f08c379a0000000000000000000000000000000000000000000000000000000008152600401610cd890611db2565b60405180910390fd5b5f60015f9054906101000a900473ffffffffffffffffffffffffffffffffffffffff1673ffffffffffffffffffffffffffffffffffffffff166378b1ba57878787876040518563ffffffff1660e01b8152600401610d429493929190611ffc565b602060405180830381865afa158015610d5d573d5f803e3d5ffd5b505050506040513d601f19601f82011682018060405250810190610d819190612072565b905080610dc3576040517f08c379a0000000000000000000000000000000000000000000000000000000008152600401610dba906120e7565b60405180910390fd5b6001826004015f6101000a81548160ff02191690831515021790555087604051610ded919061182f565b60405180910390207fb57af8087adaf63fd7418180eac1fadbc6d77f50d0fd5861ee25bb290667a9c888604051610e2491906111bc565b60405180910390a25050505050505050565b828054828255905f5260205f20908101928215610eac579160200282015b82811115610eab578251825f6101000a81548173ffffffffffffffffffffffffffffffffffffffff021916908373ffffffffffffffffffffffffffffffffffffffff16021790555091602001919060010190610e54565b5b509050610eb99190610ebd565b5090565b5b80821115610ed4575f815f905550600101610ebe565b5090565b5f604051905090565b5f80fd5b5f80fd5b5f80fd5b5f80fd5b5f601f19601f8301169050919050565b7f4e487b71000000000000000000000000000000000000000000000000000000005f52604160045260245ffd5b610f3782610ef1565b810181811067ffffffffffffffff82111715610f5657610f55610f01565b5b80604052505050565b5f610f68610ed8565b9050610f748282610f2e565b919050565b5f67ffffffffffffffff821115610f9357610f92610f01565b5b610f9c82610ef1565b9050602081019050919050565b828183375f83830152505050565b5f610fc9610fc484610f79565b610f5f565b905082815260208101848484011115610fe557610fe4610eed565b5b610ff0848285610fa9565b509392505050565b5f82601f83011261100c5761100b610ee9565b5b813561101c848260208601610fb7565b91505092915050565b5f806040838503121561103b5761103a610ee1565b5b5f83013567ffffffffffffffff81111561105857611057610ee5565b5b61106485828601610ff8565b925050602083013567ffffffffffffffff81111561108557611084610ee5565b5b61109185828601610ff8565b9150509250929050565b5f602082840312156110b0576110af610ee1565b5b5f82013567ffffffffffffffff8111156110cd576110cc610ee5565b5b6110d984828501610ff8565b91505092915050565b5f81519050919050565b5f82825260208201905092915050565b5f5b838110156111195780820151818401526020810190506110fe565b5f8484015250505050565b5f61112e826110e2565b61113881856110ec565b93506111488185602086016110fc565b61115181610ef1565b840191505092915050565b5f8115159050919050565b6111708161115c565b82525050565b5f6040820190508181035f83015261118e8185611124565b905061119d6020830184611167565b9392505050565b5f819050919050565b6111b6816111a4565b82525050565b5f6020820190506111cf5f8301846111ad565b92915050565b5f73ffffffffffffffffffffffffffffffffffffffff82169050919050565b5f819050919050565b5f61121761121261120d846111d5565b6111f4565b6111d5565b9050919050565b5f611228826111fd565b9050919050565b5f6112398261121e565b9050919050565b6112498161122f565b82525050565b5f6020820190506112625f830184611240565b92915050565b5f819050919050565b61127a81611268565b8114611284575f80fd5b50565b5f8135905061129581611271565b92915050565b6112a4816111a4565b81146112ae575f80fd5b50565b5f813590506112bf8161129b565b92915050565b5f805f80608085870312156112dd576112dc610ee1565b5b5f85013567ffffffffffffffff8111156112fa576112f9610ee5565b5b61130687828801610ff8565b945050602085013567ffffffffffffffff81111561132757611326610ee5565b5b61133387828801610ff8565b935050604061134487828801611287565b9250506060611355878288016112b1565b91505092959194509250565b5f806040838503121561137757611376610ee1565b5b5f83013567ffffffffffffffff81111561139457611393610ee5565b5b6113a085828601610ff8565b92505060206113b1858286016112b1565b9150509250929050565b6113c481611268565b82525050565b5f81519050919050565b5f82825260208201905092915050565b5f819050602082019050919050565b5f6113fd826111d5565b9050919050565b61140d816113f3565b82525050565b5f61141e8383611404565b60208301905092915050565b5f602082019050919050565b5f611440826113ca565b61144a81856113d4565b9350611455836113e4565b805f5b8381101561148557815161146c8882611413565b97506114778361142a565b925050600181019050611458565b5085935050505092915050565b5f60a0820190508181035f8301526114aa8188611124565b90506114b960208301876111ad565b6114c660408301866113bb565b81810360608301526114d88185611436565b90506114e76080830184611167565b9695505050505050565b5f6020820190508181035f8301526115098184611124565b905092915050565b5f67ffffffffffffffff82111561152b5761152a610f01565b5b602082029050919050565b5f80fd5b5f61154c61154784611511565b610f5f565b9050806020840283018581111561156657611565611536565b5b835b8181101561158f578061157b88826112b1565b845260208401935050602081019050611568565b5050509392505050565b5f82601f8301126115ad576115ac610ee9565b5b60026115ba84828561153a565b91505092915050565b5f67ffffffffffffffff8211156115dd576115dc610f01565b5b602082029050919050565b5f6115fa6115f5846115c3565b610f5f565b9050806040840283018581111561161457611613611536565b5b835b8181101561163d57806116298882611599565b845260208401935050604081019050611616565b5050509392505050565b5f82601f83011261165b5761165a610ee9565b5b60026116688482856115e8565b91505092915050565b5f67ffffffffffffffff82111561168b5761168a610f01565b5b602082029050602081019050919050565b5f6116ae6116a984611671565b610f5f565b905080838252602082019050602084028301858111156116d1576116d0611536565b5b835b818110156116fa57806116e688826112b1565b8452602084019350506020810190506116d3565b5050509392505050565b5f82601f83011261171857611717610ee9565b5b813561172884826020860161169c565b91505092915050565b5f805f805f80610160878903121561174c5761174b610ee1565b5b5f87013567ffffffffffffffff81111561176957611768610ee5565b5b61177589828a01610ff8565b965050602061178689828a016112b1565b955050604061179789828a01611599565b94505060806117a889828a01611647565b9350506101006117ba89828a01611599565b92505061014087013567ffffffffffffffff8111156117dc576117db610ee5565b5b6117e889828a01611704565b9150509295509295509295565b5f81905092915050565b5f611809826110e2565b61181381856117f5565b93506118238185602086016110fc565b80840191505092915050565b5f61183a82846117ff565b915081905092915050565b7f50726f64756374206e6f7420666f756e640000000000000000000000000000005f82015250565b5f6118796011836110ec565b915061188482611845565b602082019050919050565b5f6020820190508181035f8301526118a68161186d565b9050919050565b7f4e487b71000000000000000000000000000000000000000000000000000000005f52602260045260245ffd5b5f60028204905060018216806118f157607f821691505b602082108103611904576119036118ad565b5b50919050565b5f819050815f5260205f209050919050565b5f6020601f8301049050919050565b5f82821b905092915050565b5f600883026119667fffffffffffffffffffffffffffffffffffffffffffffffffffffffffffffffff8261192b565b611970868361192b565b95508019841693508086168417925050509392505050565b5f6119a261199d611998846111a4565b6111f4565b6111a4565b9050919050565b5f819050919050565b6119bb83611988565b6119cf6119c7826119a9565b848454611937565b825550505050565b5f90565b6119e36119d7565b6119ee8184846119b2565b505050565b5b81811015611a1157611a065f826119db565b6001810190506119f4565b5050565b601f821115611a5657611a278161190a565b611a308461191c565b81016020851015611a3f578190505b611a53611a4b8561191c565b8301826119f3565b50505b505050565b5f82821c905092915050565b5f611a765f1984600802611a5b565b1980831691505092915050565b5f611a8e8383611a67565b9150826002028217905092915050565b611aa7826110e2565b67ffffffffffffffff811115611ac057611abf610f01565b5b611aca82546118da565b611ad5828285611a15565b5f60209050601f831160018114611b06575f8415611af4578287015190505b611afe8582611a83565b865550611b65565b601f198416611b148661190a565b5f5b82811015611b3b57848901518255600182019150602085019450602081019050611b16565b86831015611b585784890151611b54601f891682611a67565b8355505b6001600288020188555050505b505050505050565b7f4e487b71000000000000000000000000000000000000000000000000000000005f52601160045260245ffd5b5f611ba4826111a4565b9150611baf836111a4565b9250828203905081811115611bc757611bc6611b6d565b5b92915050565b7f496e76616c696420636865636b706f696e7400000000000000000000000000005f82015250565b5f611c016012836110ec565b9150611c0c82611bcd565b602082019050919050565b5f6020820190508181035f830152611c2e81611bf5565b9050919050565b7f4e487b71000000000000000000000000000000000000000000000000000000005f52603260045260245ffd5b611c6b816113f3565b82525050565b5f604082019050611c845f8301856111ad565b611c916020830184611c62565b9392505050565b7f50726f6475637420616c726561647920657869737473000000000000000000005f82015250565b5f611ccc6016836110ec565b9150611cd782611c98565b602082019050919050565b5f6020820190508181035f830152611cf981611cc0565b9050919050565b7f4e6f7420656e6f756768207769746e65737365730000000000000000000000005f82015250565b5f611d346014836110ec565b9150611d3f82611d00565b602082019050919050565b5f6020820190508181035f830152611d6181611d28565b9050919050565b7f416c7265616479207665726966696564000000000000000000000000000000005f82015250565b5f611d9c6010836110ec565b9150611da782611d68565b602082019050919050565b5f6020820190508181035f830152611dc981611d90565b9050919050565b5f60029050919050565b5f81905092915050565b5f819050919050565b611df6816111a4565b82525050565b5f611e078383611ded565b60208301905092915050565b5f602082019050919050565b611e2881611dd0565b611e328184611dda565b9250611e3d82611de4565b805f5b83811015611e6d578151611e548782611dfc565b9650611e5f83611e13565b925050600181019050611e40565b505050505050565b5f60029050919050565b5f81905092915050565b5f819050919050565b5f81905092915050565b611ea581611dd0565b611eaf8184611e92565b9250611eba82611de4565b805f5b83811015611eea578151611ed18782611dfc565b9650611edc83611e13565b925050600181019050611ebd565b505050505050565b5f611efd8383611e9c565b60408301905092915050565b5f602082019050919050565b611f1e81611e75565b611f288184611e7f565b9250611f3382611e89565b805f5b83811015611f63578151611f4a8782611ef2565b9650611f5583611f09565b925050600181019050611f36565b505050505050565b5f81519050919050565b5f82825260208201905092915050565b5f819050602082019050919050565b5f602082019050919050565b5f611faa82611f6b565b611fb48185611f75565b9350611fbf83611f85565b805f5b83811015611fef578151611fd68882611dfc565b9750611fe183611f94565b925050600181019050611fc2565b5085935050505092915050565b5f610120820190506120105f830187611e1f565b61201d6040830186611f15565b61202a60c0830185611e1f565b81810361010083015261203d8184611fa0565b905095945050505050565b6120518161115c565b811461205b575f80fd5b50565b5f8151905061206c81612048565b92915050565b5f6020828403121561208757612086610ee1565b5b5f6120948482850161205e565b91505092915050565b7f496e76616c6964205a4b2070726f6f66000000000000000000000000000000005f82015250565b5f6120d16010836110ec565b91506120dc8261209d565b602082019050919050565b5f6020820190508181035f8301526120fe816120c5565b905091905056fea26469706673582212206de06daf08f3593c890086c2b078899c877ade21e800bba3a5d9ac8bff882d4564736f6c63430008140033","linkReferences":{}},"methodIdentifiers":{"addCheckpoint(string,string,bytes32,uint256)":"5a06cdd8","addWitness(string,uint256)":"6926475c","getCheckpoint(string,uint256)":"b8b643f4","getCheckpointCount(string)":"06b15c83","getMetadataCID(string)":"cc3b6fbb","products(string)":"0186a423","registerProduct(string,string)":"8fbd0dcf","updateMetadataCID(string,string)":"0148a54b","verifier()":"2b7ac3f3","verifyCheckpoint(string,uint256,uint256[2],uint256[2][2],uint256[2],uint256[])":"dd1fc103"},"id":21}